S01700004763634170706C69636174696F6E332E7372656359
S11300000C9434000C943E000C943E000C943E007E
S11300100C943E000C943E000C943E000C943E0064
S11300200C943E000C943E000C943E000C943E0054
S11300300C943E000C943E000C943E000C943E0044
S11300400C943E000C943E000C943E000C943E0034
S11300500C943E000C943E000C943E000C943E0024
S11300600C943E000C943E0011241FBECFEFD8E048
S1130070DEBFCDBF0E9453000C9483000C9400009B
S11300808AB18C6F8AB984B18F6384B908955A9AFE
S113009008955A9808955B9A08955B9808952D9A47
S11300A008952D9808950E9440000E944F000E94D8
S11300B049000E944D002FEF83ED90E321508040D2
S11300C09040E1F700C000000E9451000E944700E8
S11300D00E944D002FEF83ED90E32150804090402B
S11300E0E1F700C000000E9451000E9449000E94F4
S11300F04B002FEF83ED90E3215080409040E1F7D7
S10D010000C00000D2CFF894FFCF36
S9030000FC
