:100000000C9434000C9451000C9451000C94510049
:100010000C9451000C9451000C9451000C9451001C
:100020000C9451000C9451000C9451000C94F80065
:100030000C9451000C9451000C9451000C945100FC
:100040000C9451000C9451000C9451000C945100EC
:100050000C9451000C9451000C9451000C945100DC
:100060000C9451000C94510011241FBECFEFD8E026
:10007000DEBFCDBF11E0A0E0B1E0E8EAF2E002C0EF
:1000800005900D92AC34B107D9F721E0ACE4B1E0B2
:1000900001C01D92A135B207E1F70E9424010C9422
:1000A00052010C9400008AB18C6F8AB984B18F63BD
:1000B00084B908955A9A08955A9808955B9A0895B4
:1000C0005B9808955C9A08955C9808951092C50015
:1000D00087E68093C400E2ECF0E080818660808354
:1000E000E1ECF0E08081886180830895E0ECF0E04D
:1000F00080818823ECF78091C60008959C010A97BF
:1001000041F4E0ECF0E0908195FFFDCF8DE080932D
:10011000C600E0ECF0E0908195FFFDCF2093C60093
:100120000895CF93DF93C0E5D1E0899190E00E94DC
:100130007E0088818111F9CFDF91CF91089588E009
:100140009DE39093890080938800E1E8F0E080814E
:1001500088608083AFE6B0E08C9182608C93808170
:1001600084608083789408958091020190910301C6
:1001700001979093030180930201059710F40E9468
:100180005E008091020190910301069710F00E9499
:1001900060008091020190910301892B31F48AE083
:1001A00090E09093030180930201089580910001F3
:1001B00090910101019790930101809300010397B1
:1001C00010F40E9462008091000190910101049757
:1001D00010F00E9464008091000190910101892B30
:1001E00031F485E090E0909301018093000108953F
:1001F0001F920F920FB60F9211242F933F934F939C
:100200005F936F937F938F939F93AF93BF93EF937E
:10021000FF9380914C0190914D01019721F40E9430
:10022000B4000E94D600FF91EF91BF91AF919F91D2
:100230008F917F916F915F914F913F912F910F908F
:100240000FBE0F901F9018950E9453000E946600E9
:100250000E949F0083E2E4E0F1E0A0E5B1E00190BC
:100260000D928A95E1F70E94910084E2E7E2F1E0C5
:10027000A0E5B1E001900D928A95E1F70E9491000E
:1002800081E090E090934D0180934C010E947600B4
:10029000803319F40E945C00F9CF8133B9F70E94D2
:0802A0005A00F4CFF894FFCFDF
:1002A80005000A0032332F322F32303137207632B0
:1002B8002055534152543020616E64204750494FB5
:1002C800204F2F500D0A0073656E64203120746F23
:1002D800206770696F32204F4E2C203020746F20B9
:0C02E8006770696F204F46460D0A000049
:00000001FF
